:100000006EC0000087C0000085C0000083C00000F3
:1000100081C000007FC000007DC000007BC00000E8
:1000200079C0000077C0000075C0000025C700003F
:1000300071C000006FC000006DC000006BC0000008
:1000400069C0000067C0000065C0000063C0000018
:1000500061C000005FC000005DC000005BC0000028
:1000600059C0000057C0000055C0000053C0000038
:1000700051C000001201100102000008EB034F20E4
:1000800001000102000109022000010100C0320943
:1000900004000002FF000000070581024000000785
:1000A00005020240000004030904100349006C002B
:1000B0006D006100720069006E0000001A036F009D
:1000C000700065006E0064006F00750073002D0005
:1000D0006A0074006100670000000004A00511249C
:1000E0001FBECFEFD2E0DEBFCDBF11E0A0E0B1E098
:1000F000EAEEFFE002C005900D92A430B107D9F7F7
:1001000012E0A4E0B1E001C01D92A238B107E1F70E
:1001100026D169C775CFFB01DC0102C005900D92A5
:1001200041505040D8F708950895089508950895CE
:100130000F931F93CF93DF9380917902843009F05E
:1001400000C181E08093E900609106017091070190
:1001500061157105B1F08091E80085FF12C08091B2
:100160000201909103017CD58091E800982F9E7F39
:100170009093E8008F778093E80010920701109227
:10018000060182E08093E9008091E80085FFD9C0F4
:100190006091F1007091F10060930401709305018A
:1001A00080910001909101018CD58091E800982FF9
:1001B0009B7F9093E8008F778093E8008091040103
:1001C00090910501009709F4BCC09C01215030407A
:1001D000309305012093040110920701109206014B
:1001E000E0910001F09101018081C82FD0E0CF7033
:1001F000D070C330D10509F46CC0C430D1055CF4B3
:10020000C130D10509F471C0C230D1050CF069C00C
:10021000CD2B81F096C0C530D10509F473C0C5302F
:10022000D105ACF1C630D10509F472C0279709F0A9
:1002300088C07EC0220F331F220F331F3093050169
:10024000209304019081892F807F51F02450304009
:1002500092959F70290F311D309305012093040161
:100260008091090190910A0140910201509103018E
:1002700060910401709105019F012F5F3F4F892B11
:1002800019F0C90182D159C0C901DDD056C0220F71
:10029000331F220F331F30930501209304019081F7
:1002A000892F807F51F02450304092959F70290F04
:1002B000311D309305012093040160910401709178
:1002C00005014091020150910301CF0101961CD21A
:1002D00034C00091020110910301EAD2F801808339
:1002E00024C08181817000D31BC081818170F5D2CF
:1002F000E0910201F09103011082D0930701C093B5
:1003000006011FC081811092090180930A0108C073
:100310006181862F90E09695879561708170ECD20F
:10032000E0910201F0910301108281E090E005C0AC
:100330008091020190910301EAD29093070180938A
:100340000601DF91CF911F910F91089581E061E83F
:1003500042E308D482E060E842E304D46EC084B78C
:10036000877F84BF88E10FB6F89480936000109275
:1003700060000FBE80E090E020E80FB6F894209374
:100380006100809361000FBE58D080E090E0E09162
:100390000001F0910101E80FF91F1082019621E0A0
:1003A00088369207A1F780E090E0E0910201F09199
:1003B0000301E80FF91F1082019621E088369207A9
:1003C000A1F71092050110920401109207011092FA
:1003D00006011092080143D5ABDEF2D5FDCFDA015C
:1003E000923049F0933061F09130F9F4E4E7F0E0B5
:1003F00022E130E01EC0E6E8F0E020E230E019C083
:10040000813049F0813018F0823079F408C0E6EA92
:10041000F0E0849107C0EAEAF0E0849103C0ECEBDD
:10042000F0E08491282F30E004C0E0E0F0E020E02C
:1004300030E0ED93FC93C901089515B88FE184B9BC
:100440008CE085B90895AF92BF92CF92DF92EF9280
:10045000FF920F931F93CF93DF937B015A016C019F
:1004600020E060E070E0A0E0B0E041E050E003E0B8
:1004700010E0C2E0D0E0F601308185B1932F937097
:100480008C7F982B95B92C9A00002C9883B12695D7
:10049000880F880F8078282B4E155F0508F055C00F
:1004A0003695369585B1932F93708C7F982B95B99F
:1004B0002C9A00002C9883B12695880F880F80789D
:1004C000282BCE15DF0510F0AE013FC036953695CE
:1004D00085B1932F93708C7F982B95B92C9A00003F
:1004E0002C9883B12695880F880F8078282B0E15BD
:1004F0001F0510F0A80129C085B1369536958C7F6F
:10050000382B35B92C9A00002C9883B12695880F8A
:10051000880F8078282B6C5F7F4FCB01877090709D
:10052000892B31F4F501EA0FFB1F2083119620E09F
:100530004C5F5F4F0894C11CD11C0C5F1F4F249669
:100540006E157F0508F497CFAB01477050704115C9
:10055000510579F0AA0EBB1E30E088E090E0841BC4
:10056000950B02C0359527958A95E2F7F501208312
:100570001196CD01DF91CF911F910F91FF90EF90D8
:10058000DF90CF90BF90AF900895AF92BF92CF927F
:10059000DF92EF92FF920F931F93CF93DF937B0134
:1005A0005A016C0120E0C0E0D0E040E050E001E002
:1005B00010E0A3E0B0E062E070E0F601308185B1C8
:1005C000932F93708C7F982B95B92C9AE091090109
:1005D000F0910A01CF010197F1F72C98CF01019713
:1005E000F1F783B12695880F880F8078282B0E1598
:1005F0001F0510F0D80162C03695369585B1932F4E
:1006000093708C7F982B95B92C9ACF010197F1F7B5
:100610002C98CF010197F1F783B12695880F880FA9
:100620008078282B6E157F0510F0DB0147C03695CA
:10063000369585B1932F93708C7F982B95B92C9A12
:10064000CF010197F1F72C98CF010197F1F783B112
:100650002695880F880F8078282BAE15BF0570F57A
:1006600085B1369536958C7F382B35B92C9ACF01CC
:100670000197F1F72C98CF010197F1F783B12695F7
:10068000880F880F8078282B4C5F5F4FCA018770D6
:100690009070892B31F4F501EC0FFD1F208321961A
:1006A00020E00C5F1F4F0894C11CD11C14966C5F96
:1006B0007F4F4E155F0508F480CFDA01FD01E7702A
:1006C000F070309769F0CA0DDB1D30E088E090E0F3
:1006D0008E1B9F0B02C0359527958A95E2F72883DC
:1006E0009701295F3F4F83E0369527958A95E1F77B
:1006F000C901DF91CF911F910F91FF90EF90DF9093
:10070000CF90BF90AF900895AF92BF92CF92DF92FB
:10071000EF92FF920F931F93CF93DF937B015A01C8
:100720006C0120E0C0E0D0E040E050E001E010E0EB
:10073000A3E0B0E062E070E0F601308185B1932F74
:1007400093708C7F982B95B92C9AE0910901F091C8
:100750000A01CF010197F1F72C98CF010197F1F72A
:1007600083B12695880F880F8078282B83B1269532
:10077000880F8078282B0E151F0510F0D80171C046
:100780003695369585B1932F93708C7F982B95B9BC
:100790002C9ACF010197F1F72C98CF010197F1F72F
:1007A00083B12695880F880F8078282B83B12695F2
:1007B000880F8078282B6E157F0510F0DB0151C063
:1007C0003695369585B1932F93708C7F982B95B97C
:1007D0002C9ACF010197F1F72C98CF010197F1F7EF
:1007E00083B12695880F880F8078282B83B12695B2
:1007F000880F8078282BAE15BF0598F585B1369502
:1008000036958C7F382B35B92C9ACF010197F1F7AB
:100810002C98CF010197F1F783B12695880F880FA7
:100820008078282B83B12695880F8078282B4C5F01
:100830005F4FCA0183709070892B31F4F501EC0F82
:10084000FD1F2083219620E00C5F1F4F0894C11CE0
:10085000D11C14966C5F7F4F4E155F0508F46CCF6A
:10086000DA01FD01E370F070309779F0CA0DDB1DFD
:1008700030E084E090E08E1B9F0B880F991F02C030
:10088000359527958A95E2F7288397012D5F3F4F8D
:100890003695279536952795C901DF91CF911F9100
:1008A0000F91FF90EF90DF90CF90BF90AF900895A1
:1008B00083B1282F229526952695237030E021704C
:1008C0003070220F331F82958695877090E081707B
:1008D0009070282B392BC901089595B1880F880F86
:1008E0009B7F982B95B9089595B1880F880F880F35
:1008F000977F982B95B9089595B1660F660F660F8F
:10090000880F880F862B937F982B95B908956AEDF1
:1009100070E044E050E0FFDB84E090E008951F9336
:10092000DF93CF9300D0CDB7DEB7EAE7F2E0809156
:10093000F100819382E0E238F807C9F780917A02EA
:1009400030917B02353009F486C0363040F43130C6
:10095000C1F1313070F0333009F0EFC032C03830BF
:1009600009F4BCC0393009F4CFC0363009F0E5C015
:1009700091C0803821F0823809F0DFC008C0909122
:10098000750280917602882391F0926010C0809168
:100990007E028093E9008091EB0090E025E096953F
:1009A00087952A95E1F7982F91701092E900809130
:1009B000E800877F8093E8009093F1001092F100A7
:1009C00098C0882319F0823009F0B7C090E08F7189
:1009D0009070009721F0029709F0B0C00CC0809190
:1009E0007C02813009F0AAC010927602333069F59A
:1009F000809376022AC080917C02882331F5209171
:100A00007E02277009F49AC02093E9008091EB00E0
:100A100080FF1BC0333021F48091EB00806213C053
:100A20008091EB0080618093EB0081E090E002C058
:100A3000880F991F2A95E2F78093EA001092EA0046
:100A40008091EB0088608093EB001092E900809128
:100A5000E800877F55C0882309F06FC010917C02A1
:100A60008091E800877F8093E800A6D005C0809140
:100A70007902882309F462C08091E80080FFF7CFF3
:100A8000912F9F7719F083E080937902906890937B
:100A9000E30054C08058823008F04FC080917C023F
:100AA00090917D0260917E02AE014F5F5F4F97DCB7
:100AB000BC01009709F442C08091E800877F8093D1
:100AC000E80089819A812ED18091E800982F9B7F40
:100AD0009093E8008F778093E80030C0803869F504
:100AE0008091E800877F8093E8008091770280936F
:100AF000F1008091E800982F9E7F9093E8008F7717
:100B00008093E80059D01AC08823B9F490917C02F0
:100B10009230A0F48091E800877F8093E800909362
:100B200077024AD080917702882311F483E001C0D4
:100B300084E0809379020ADC01C0F9DA8091E80050
:100B400083FF0AC08091EB0080628093EB0080916C
:100B5000E800877F8093E8000F900F90CF91DF919E
:100B60001F9108958093E9008091EB00816080934C
:100B7000EB001092ED006093EC004093ED0080914B
:100B8000EE00881F8827881F08951092F40090E0D7
:100B90009093E9001092F0001092E8008091ED002F
:100BA0008D7F8093ED008091EB008E7F8093EB0032
:100BB0009F5F953069F7089580917A028823BCF48D
:100BC00004C0809179028823F9F08091E80082FFC7
:100BD000F8CF8091E800982F9B7F9093E8008F7763
:100BE0008093E800089580917902882369F08091CC
:100BF000E80080FFF8CF8091E800982F9E7F9093C7
:100C0000E8008F778093E800089594E68091EC00E7
:100C100080FF05C08091E80080FF05C01FC0809163
:100C2000E80082FD1BC080917902882311F482E0E4
:100C300008958091EB0085FF02C081E008958091C6
:100C4000E10082FFE3CF8091E1008B7F8093E100A0
:100C5000992311F483E008959150D8CF80E008954E
:100C6000FF920F931F93CF93DF93182F092FEB0160
:100C7000CCDFF82E8823F1F4812F902F9C0189017D
:100C800017C08091E80085FD0DC08091E800982F85
:100C90009E7F9093E8008F778093E800B6DF8823EB
:100CA00039F009C0F80181918F018093F1002197FB
:100CB000209739F78F2DDF91CF911F910F91FF90E2
:100CC0000895FF920F931F93CF93DF93182F092F4F
:100CD000EB019BDFF82E8823F1F4812F902F9C01EC
:100CE000890117C08091E80085FD0DC08091E80062
:100CF000982F9B7F9093E8008F778093E80085DFA3
:100D0000882339F009C08091F100F80181938F01A7
:100D10002197209739F78F2DDF91CF911F910F9158
:100D2000FF9008959C0140918002509181024617E6
:100D3000570710F460E043C06115710511F0AB0175
:100D4000F9CF8091E800982F9E7F9093E8008F77ED
:100D50008093E80040E050E0EDCF8091E80083FF11
:100D600002C081E008958091E80082FD32C0809148
:100D700079028823A1F18091E80080FF20C0809152
:100D8000F20090E009C0F9012F5F3F4FE491E0933A
:100D9000F1004150504001964115510519F088303D
:100DA000910588F360E0089709F461E08091E8001C
:100DB000982F9E7F9093E8008F778093E8004115ED
:100DC000510559F6662349F604C0809179028823BB
:100DD00031F08091E80082FFF8CF80E0089582E052
:100DE000089544D046D01092790210927702109262
:100DF00076021092750219BC89B5826089BD09B46A
:100E000000FEFDCF8091D800982F9F779093D80057
:100E100080688093D800809163008E7F8093630008
:100E20008091D8008F7D8093D8008091E0008E7FE4
:100E30008093E0008091E1008E7F8093E1008091BB
:100E4000E20081608093E2008091E100877F8093DF
:100E5000E1008091E20088608093E2000895C1DFA4
:100E600081E0809378027894089508951092E200CA
:100E700008951092E10008951F920F920FB60F92FD
:100E800011242F933F934F935F936F937F938F938F
:100E90009F93AF93BF93EF93FF938091E10080FF07
:100EA0001CC08091E20080FF18C08091E1008E7F1D
:100EB0008093E1008091E2008E7F8093E200809138
:100EC000E20080618093E2008091D800806280938C
:100ED000D80019BC1092790229D98091E10084FFD1
:100EE00029C08091E20084FF25C019BC89B58260C9
:100EF00089BD09B400FEFDCF8091D8008F7D80931D
:100F0000D8008091E1008F7E8093E1008091E20023
:100F10008F7E8093E2008091E20081608093E20006
:100F200080917702882311F481E001C084E08093EE
:100F30007902FAD88091E10083FF23C08091E2001A
:100F400083FF1FC08091E100877F8093E10082E0F2
:100F500080937902109277028091E1008E7F8093D6
:100F6000E1008091E2008E7F8093E2008091E200B8
:100F700080618093E20009DE80E060E042E0F2DD23
:100F8000D4D88091E10082FF0AC08091E20082FF04
:100F900006C08091E1008B7F8093E10066DFFF91C6
:100FA000EF91BF91AF919F918F917F916F915F91E1
:100FB0004F913F912F910F900FBE0F901F9018955A
:100FC0001F9380917902882361F01091E9001092BB
:100FD000E9008091E80083FF01C0A1DC1770109345
:0A0FE000E9001F910895F894FFCF77
:040FEA000D010B01E9
:00000001FF
